:1000000009C016C015C014C013C012C011C010C062
:100010000FC00EC011241FBECFE9CDBF20E0A0E667
:10002000B0E001C01D92A736B207E1F7BBD0C0C156
:10003000E7CF80916500813039F4909163009E6F25
:100040009E3F69F080E00895823041F49091630012
:100050009D6F81E09D3F19F080E0089580E0089554
:10006000CF93C398C49810926500109264001092C8
:1000700062008091660081110EC0C0E082E090E0D5
:1000800083D1C81740F48FED9EE20197F1F700C0CD
:100090000000CF5FF3CFCF910895CF93DF93D6B316
:1000A000D7728091660081110CC0C0E081E090E0C1
:1000B0006BD1C81760F480EA8A95F1F70000CF5F32
:1000C000F5CF8FE599E00197F1F700C0000086B306
:1000D0002D2F30E0877290E02817390701F7A89597
:1000E0008D2FDF91CF910895CF93D7DF8093630059
:1000F00085FDFBCF8F6D8F3D61F4C0E002C0C83C31
:1001000049F0CBDF80936300CF5F8F6D8F3DB9F3F4
:1001100001C0C0E08C2FCF910895CF93E5DF80938D
:100120006400883C58F4C0E002C0CE3F41F0CF5F8D
:10013000DBDF80936400883CC0F301C0C0E08C2FFB
:10014000CF910895CF93C82FC39AC49A85E0809326
:10015000650080916500883031F4809163008330C0
:10016000F9F47EDF19C099DF809363008B6F8B3FBA
:1001700099F4809164008C1730F0C398C49888E09B
:10018000809365000DC08F5F8093640086DF80934D
:1001900063008B6F8B3FD1F3809165008530C9F28E
:1001A000CF91089587B3886187BB88B3836288BB8A
:1001B00089E381BD89E281BD80E090E0E5D08430B3
:1001C000A1F064E084E090E0E6D060E083E090E0BD
:1001D000E2D064E082E090E0DED06AE081E090E08E
:1001E000DAD064E080E090E0D6D0C1E0D8E055DF1E
:1001F000809363008F6D8F3D09F03FC0C093660010
:100200002FDF86E09FDF89DF811103C0109260003D
:1002100007C06FEF680F6093600084E090E0BBD090
:100220001FDF8C2F8FDF79DF811103C010926000F8
:1002300007C06FEF680F6093600083E090E0ABD081
:100240000FDF82E07FDF69DF80936000882321F089
:10025000682F82E090E09FD003DF83E073DF5DDFF3
:1002600080936000882321F0682F81E090E093D094
:10027000F7DE86E067DF10926600DBDE80936100C8
:10028000813009F4EDDE8091650083FF08C0809124
:1002900063008770833009F0AACFE2DEA8CF982FE1
:1002A0009770B1F1909163009B6F9B3F09F09FCFD6
:1002B0008370833031F483E090E066D080936200F5
:1002C00005C084E090E060D080936200809164007B
:1002D00090916200891728F0C398C498D093650064
:1002E00086CF8F5F80936400809163008B6F8B3F1C
:1002F00009F07DCF80916100811179CFCEDE8093AE
:10030000630097DE80936100813071F7A9DEECCF46
:1003100081116DCF8091630087708530E1F018F412
:10032000882331F064CF863011F1873031F05FCF10
:10033000C398C498D09365005ACF83E090E024D04E
:10034000882309F454CFC39AC49A83E0809365004C
:10035000C09364004CCF84E090E016D0882309F469
:1003600046CFC39AC0936500C093640040CF84E039
:1003700090E00AD0882309F43ACFC49A82E08093AF
:100380006500C093640033CFE199FECF8EBBE09A45
:1003900099278DB30895262FE199FECF1CBA8EBB05
:1003A0002DBB0FB6F894E29AE19A0FBE019608951C
:0403B000F894FFCFEF
:00000001FF
